:040000000CEF00F011
:10000800FACF02F0FBCF03F0E9CF04F046ED0BF096
:0400180083EF0EF074
:100600000001000A006400E80310270D4552523A29
:100610002025642C20503A2025642C204920256474
:100620002C20443A2025642C2050574D3A20256434
:10063000000D6B503D25642C206B493D25642C201A
:100640006B443D25642C204F46465345543A2025A3
:1006500064000D0D54657374696E67205049442021
:1006600052554E206D6F64652E0D000D44697370F8
:100670006C6179204F4646000D436F6D6D616E646D
:100680003A202563000D446973706C6179204F4EE8
:10069000000D48414C54000D52554E000000000E14
:1006A0000001B36F000E0001B46F000E0001B56FC2
:1006B000000E0001B66F000E0001B76F000E0001C2
:1006C000B86F000E0001B96F000E0001BA6F000E86
:1006D0000001BB6F000E0001BC6F000E0001BD6F7A
:1006E000000E0001BE6F000138C0C1F0000139C02A
:1006F000C2F00001000E0001C2BFFF0E0001C36F77
:100700000001C46F36C012F037C013F0000E156E32
:100710000F0E146EC1EC0FF0060E1226000E1322FF
:100720000001800E1224D96E0001000E1320DA6E33
:10073000DF50D8A446D036C012F037C013F0000EF8
:10074000156E0F0E146EC1EC0FF00001800E122416
:10075000D96E0001000E1320DA6EDECF3AF0DECF44
:100760003BF0DECF3CF0DECF3DF00001C1513A243A
:100770003E6E0001C2513B203F6E0001C3513C2040
:10078000406E0001C4513D20416E36C012F037C0AA
:1007900013F0000E156E0F0E146EC1EC0FF0000179
:1007A000800E1224D96E0001000E1320DA6E3EC0B6
:1007B000DEFF3FC0DEFF40C0DEFF41C0DDFFD906E7
:1007C000D90636C012F037C013F0000E156E0F0EAA
:1007D000146EC1EC0FF0040E1226000E132200015D
:1007E000800E1224D96E0001000E1320DA6EDECFC7
:1007F0003AF0DDCF3BF0D8903A363B3636C012F0B7
:1008000037C013F0000E156E060E146EC1EC0FF01B
:10081000480E3C6E000E3D6E12503C2613503D2299
:100820003A503C24D96E3B503D20DA6E0001DECFB9
:10083000A9F00001DDCFAAF00001000E0001AABF5F
:10084000FF0E0001AB6F0001AC6F0001A9C03AF0D0
:100850000001AAC03BF00001ABC03CF00001ACC0FD
:100860003DF03A1E3B1E3C1E3D1E3A2A000E3B2226
:100870003C223D220001C1513A240001A56F000134
:10088000C2513B200001A66F0001C3513C20000172
:10089000A76F0001C4513D200001A86F36C012F0BF
:1008A00037C013F0000E156E0F0E146EC1EC0FF072
:1008B000040E1226000E13220001800E1224D96E9F
:1008C0000001000E1320DA6EDECF3AF0DDCF3BF0F0
:1008D000D8903A363B3636C012F037C013F0000ECF
:1008E000156E060E146EC1EC0FF0480E3C6E000E35
:1008F0003D6E12503C2613503D223A503C24D96E96
:100900003B503D20DA6E38C0DEFF39C0DDFF36C017
:1009100012F037C013F0000E156E0F0E146EC1ECFE
:100920000FF0040E1226000E13220001800E122476
:10093000D96E0001000E1320DA6EDE2A000EDD22D1
:1009400036C012F037C013F0000E156E0F0E146E85
:10095000C1EC0FF0040E1226000E13220001800ECF
:100960001224D96E0001000E1320DA6EDE52DD5023
:10097000800A800F030ED8B4DF5CD8A01AD036C02E
:1009800012F037C013F0000E156E0F0E146EC1EC8E
:100990000FF0040E1226000E13220001800E122406
:1009A000D96E0001000E1320DA6E000EDE6E000E0E
:1009B000DD6E36C012F037C013F0000E156E0F0E4C
:1009C000146EC1EC0FF0070E1226000E1322000168
:1009D000800E1224D96E0001000E1320DA6EDECFD5
:1009E00018F0DDCF19F0000E19BEFF0E1A6E1B6E47
:1009F000C1C01CF0C2C01DF0C3C01EF0C4C01FF0B7
:100A0000B3EC0EF018C0B3F019C0B4F01AC0B5F0D2
:100A10001BC0B6F036C012F037C013F0000E156ED2
:100A20000F0E146EC1EC0FF0090E1226000E1322E9
:100A30000001800E1224D96E0001000E1320DA6E20
:100A4000DECF18F0DDCF19F0000E19BEFF0E1A6EC2
:100A50001B6E36C012F037C013F0000E156E0F0E6D
:100A6000146EC1EC0FF00001800E1224D96E00014B
:100A7000000E1320DA6EDECF1CF0DECF1DF0DECFCD
:100A80001EF0DECF1FF0B3EC0EF018C0B7F019C0A7
:100A9000B8F01AC0B9F01BC0BAF036C012F037C0B7
:100AA00013F0000E156E0F0E146EC1EC0FF00B0E4E
:100AB0001226000E13220001800E1224D96E0001AE
:100AC000000E1320DA6EDECF18F0DDCF19F0000E25
:100AD00019BEFF0E1A6E1B6EA5C01CF0A6C01DF03D
:100AE000A7C01EF0A8C01FF0B3EC0EF018C0BBF0FA
:100AF00019C0BCF01AC0BDF01BC0BEF00001B75158
:100B00000001B3253A6E0001B8510001B4213B6EDB
:100B10000001B9510001B5213C6E0001BA5100013C
:100B2000B6213D6E0001BB513A240001C56F0001A2
:100B3000BC513B200001C66F0001BD513C200001AB
:100B4000C76F0001BE513D200001C86FC5C012F043
:100B5000C6C013F0C7C014F0C8C015F0000E166E62
:100B6000010E176E000E186E000E196E56EC0CF08A
:100B700012C0C5F013C0C6F014C0C7F015C0C8F04D
:100B80000001C851800A800F0BE1000E0001C75D13
:100B900007E1030E0001C65D03E1E90E0001C55D3A
:100BA000D8A017D0E80E0001C56F030E0001C66F74
:100BB000000E0001C76F000E0001C86F36C012F0B2
:100BC00037C013F0000E156E0F0E146EC1EC0FF04F
:100BD00028D00001C851800A810F0BE1FF0E0001EF
:100BE000C75D07E1FC0E0001C65D03E1180E0001C0
:100BF000C55DD8B024D0180E0001C56FFC0E0001F1
:100C0000C66FFF0E0001C76FFF0E0001C86F36C030
:100C100012F037C013F0000E156E0F0E146EC1ECFB
:100C20000FF0060E1226000E13220001800E122471
:100C3000D96E0001000E1320DA6E010E17D036C0F7
:100C400012F037C013F0000E156E0F0E146EC1ECCB
:100C50000FF0060E1226000E13220001800E122441
:100C6000D96E0001000E1320DA6E000EDF6E000157
:100C7000C851800A800F0BE1000E0001C75D07E13B
:100C8000000E0001C65D03E1000E0001C55DD8B095
:100C90001FD036C012F037C013F0000E156E0F0EC5
:100CA000146EC1EC0FF00D0E1226000E132200017F
:100CB000800E1224D96E0001000E1320DA6EDECFF2
:100CC0003AF0DDCF3BF03A1E3B1E3A4A3B2A1AD09F
:100CD00036C012F037C013F0000E156E0F0E146EF2
:100CE000C1EC0FF00D0E1226000E13220001800E33
:100CF0001224D96E0001000E1320DA6EDECF3AF016
:100D0000DDCF3BF00001C5513A240001BF6F000167
:100D1000C6513B200001C06FB3C012F0B4C013F045
:100D2000B5C014F0B6C015F0000E166E010E176EA9
:100D3000000E186E000E196E56EC0CF012C03AF050
:100D400013C03BF014C03CF015C03DF03AC0ADF00C
:100D50003BC0AEF0B7C012F0B8C013F0B9C014F089
:100D6000BAC015F0000E166E010E176E000E186E4A
:100D7000000E196E56EC0CF012C03AF013C03BF0A6
:100D800014C03CF015C03DF03AC0AFF03BC0B0F02D
:100D9000BBC012F0BCC013F0BDC014F0BEC015F053
:100DA000000E166E010E176E000E186E000E196EF4
:100DB00056EC0CF012C03AF013C03BF014C03CF0FB
:100DC00015C03DF03AC0B1F03BC0B2F00001A451F3
:100DD000D8B426D058505710D8B404D05706D8A04D
:100DE00058061ED0060E1F6E0B0E1E6E38C020F069
:100DF00039C021F0ADC022F0AEC023F0AFC024F066
:100E0000B0C025F0B1C026F0B2C027F0BFC028F0B6
:100E1000C0C029F09AEC0AF0000E586E190E576EF9
:100E2000BFC036F0C0C037F01200000E01014D6F98
:100E3000000E0101506F000E0101516F000E010103
:100E4000476F000E01014E6F000E0101526F000E40
:100E50000101456F000E0101446F010E0101486F51
:100E6000000E0101466F000E0101496F000E0101E5
:100E70004A6F000E01014B6F000E01014C6F000E16
:100E800001014D6F11D001014D51020D0101000E04
:100E9000F324D96E0101010EF420DA6E000EDE6E2D
:100EA000000EDD6E01014D2B1F0E01014D65EBD7CC
:100EB000000E0101556F000E0101546F01015551E3
:100EC000800A800F020ED8B4545DD8B0B4D054C19B
:100ED00012F055C113F0000E156E0F0E146EC1EC1A
:100EE0000FF00001800E1224D96E0001000E1320B5
:100EF000DA6EDE6ADE6ADE6ADD6A54C112F055C15E
:100F000013F0000E156E0F0E146EC1EC0FF0040EF0
:100F10001226000E13220001800E1224D96E000149
:100F2000000E1320DA6E000EDE6E000EDD6E54C170
:100F300012F055C113F0000E156E0F0E146EC1ECB9
:100F40000FF0060E1226000E13220001800E12244E
:100F5000D96E0001000E1320DA6E000EDF6E54C150
:100F600012F055C113F0000E156E0F0E146EC1EC89
:100F70000FF0070E1226000E13220001800E12241D
:100F8000D96E0001000E1320DA6ED00EDE6E070E51
:100F9000DD6E54C112F055C113F0000E156E0F0E28
:100FA000146EC1EC0FF0090E1226000E1322000180
:100FB000800E1224D96E0001000E1320DA6E140E7A
:100FC000DE6E000EDD6E54C112F055C113F0000E3E
:100FD000156E0F0E146EC1EC0FF00B0E1226000EE4
:100FE00013220001800E1224D96E0001000E13207E
:100FF000DA6E700EDE6E170EDD6E54C112F055C142
:1010000013F0000E156E0F0E146EC1EC0FF00D0EE6
:101010001226000E13220001800E1224D96E000148
:10102000000E1320DA6E1E0EDE6E000EDD6E010164
:10103000544B552B43D70AEC0EF0D4EC0CF0000EB9
:10104000136E000E126E08EC0FF0000E136E000E01
:10105000126EDEEC0EF08288828A060E1F6E520E31
:101060001E6E9AEC0AF00001A351D8B460D1000EB4
:101070000001A36F000E0101526F000E01014F6FBE
:10108000000E01014E6F51D001014E51010D0101C1
:10109000720EF324D96E0101010EF420DA6EDF50D6
:1010A000F4EC0FF00101536F0101535198EC0FF074
:1010B000D8A003D053C14FF108D001015351200AE9
:1010C000D8A403D0200E01014F6F0101535114EC3D
:1010D00010F0010153510D0AD8B42BD00101535126
:1010E000200AD8B426D001015351E4EC0FF0D8B057
:1010F00005D0010153512D0AD8A415D0100E0101BD
:10110000525DD8B010D001015251010D01017B0E8A
:10111000F324D96E0101010EF420DA6E010153C1EE
:10112000DFFF0101522B01014E2B070E01014E651D
:10113000ABD701015251D8B419D001015251010D60
:1011400001017B0EF324D96E0101010EF420DA6E49
:10115000000EDF6E0101010E196E01017B0E186E8B
:1011600047EC0DF018C0A0F019C0A1F001014F51DB
:10117000D8A470D0D9D001015251D8B480D0000188
:10118000C9510F0D070E1AD001015251D8B477D0B2
:101190000001C9510F0D090E11D001015251D8B4EF
:1011A0006ED00001C9510F0D0B0E08D00101525134
:1011B000D8B465D00001C9510F0D0D0EF326000EF5
:1011C000F4220001800EF324D96E0001000EF420F9
:1011D000DA6E0001A0C0DEFF0001A1C0DDFF4FD02C
:1011E00001014851D8B40AD0000E0101486F060E23
:1011F0001F6E910E1E6E9AEC0AF041D0010E010195
:10120000486F060E1F6E970E1E6E9AEC0AF037D0CE
:101210000001A451D8B40AD0000E0001A46F060E3C
:101220001F6E6B0E1E6E9AEC0AF009D0010E0001C3
:10123000A46F060E1F6E850E1E6E9AEC0AF0060E47
:101240001F6E780E1E6E01014FC120F0216A9AECCC
:101250000AF015D001014F51200AD8B4C1D7640A51
:10126000D8B49BD70D0AD8B48FD7040AD8B4D0D736
:10127000020AD8B49BD71F0AD8B47DD7E0D7060E90
:101280001F6E310E1E6E0001C9510F0D070EF326A1
:10129000000EF4220001800EF324D96E0001000E2E
:1012A000F420DA6EDECF20F0DDCF21F00001C9514D
:1012B0000F0D090EF326000EF4220001800EF32418
:1012C000D96E0001000EF420DA6EDECF22F0DDCF01
:1012D00023F00001C9510F0D0B0EF326000EF4226E
:1012E0000001800EF324D96E0001000EF420DA6EA6
:1012F000DECF24F0DDCF25F00001C9510F0D0D0E1A
:10130000F326000EF4220001800EF324D96E0001B2
:10131000000EF420DA6EDECF26F0DDCF27F09AEC57
:101320000AF0000E01014F6F0D0E14EC10F00101D8
:10133000486707D0000E136E000E126EDEEC0EF042
:1013400092D60001A251D8B48ED6000E0001A26F31
:101350008AA002D08A9001D08A80020E0AEC10F096
:1013600001015051020D0101000EF324D96E01015B
:10137000010EF420DA6EDECF42F0DDCF43F042C042
:1013800044F043C045F0000E45BEFF0E466E476E6A
:10139000441E451E461E471E442A000E4522462274
:1013A00047220101495144240101496F01014A5179
:1013B000452001014A6F01014B51462001014B6F4D
:1013C00001014C51472001014C6FAEEC0FF00101BF
:1013D0005051020D0101000EF324D96E0101010EDE
:1013E000F420DA6E12C0DEFF13C0DDFF01015051A0
:1013F000020D0101000EF324D96E0101010EF4204B
:10140000DA6EDECF42F0DDCF43F042C044F043C09D
:1014100045F0000E45BEFF0E466E476E0101495174
:1014200044240101496F01014A51452001014A6FDD
:1014300001014B51462001014B6F01014C514720E6
:1014400001014C6F0101502B1F0E0101506506D0A8
:10145000010E0101466F000E0101506F49C112F0EB
:101460004AC113F04BC114F04CC115F0200E166E9A
:10147000000E176E000E186E000E196E56EC0CF072
:1014800012C042F013C043F014C044F015C045F040
:1014900042C09EF043C09FF001014651D8B440D0F5
:1014A000010E0101516F38D0010151C132F0336A90
:1014B00047C134F047EC0EF032C040F133C041F187
:1014C00000019EC042F000019FC043F0421E431E37
:1014D000424A432A0101405142240101426F010165
:1014E000415143200101436F010151C136F0376A78
:1014F00042C138F043C139F04FEC03F036C044F13B
:1015000037C045F144C11BF045C11CF001015151E8
:10151000ACEC0DF00101512B010E01015165C4D756
:101520000101472B060E010147659DD5000E010103
:10153000476F99D5000E2F6E200E2E6E9BD0355022
:10154000250AD8B404D0355014EC10F093D0000E16
:101550002C6E0ED02EC0D9FF2FC0DAFFDF50356EB3
:10156000020E2E26000E2F22355014EC10F082D0E1
:101570001EC0F6FF1FC0F7FF1E4A1F2A0800F5CF46
:1015800035F03550000AD8B480D0630AD8B4E2D719
:10159000070AD8B403D00D0AD8A4E6D72EC0D9FFC5
:1015A0002FC0DAFFDECF30F0DDCF31F0020E2E2675
:1015B000000E2F223150800AF36E800EF35C000E75
:1015C000D8B4305CD8B006D0030E2C12306C311E6B
:1015D000D8B0312A010E356E3550050AD8B416D070
:1015E0003550020D010EF324F66E060EF420F76E50
:1015F0000900F5CF2AF00900F5CF2BF02A50305C16
:101600002B503158D8A002D0352AE6D72CC02AF06A
:10161000030E2A16D8B403D02D0E14EC10F035C0EA
:101620002DF024D02D50020D010EF324F66E060E7F
:10163000F420F76E0900F5CF14F00A00F5CF15F08D
:1016400030C012F031C013F032EC0FF012C019F0BC
:1016500013C01AF0000E1C6E0A0E1B6E5BEC0FF02E
:101660001950300F356E355014EC10F02D062D2822
:10167000D8A4D8D71EC0F6FF1FC0F7FF1E4A1F2AE6
:101680000800F5CF35F035665AD712000600EACFCC
:1016900005F0E1CF06F0E2CF07F0D9CF08F0DACFBE
:1016A00009F0F3CF0AF0F4CF0BF0F6CF0CF0F7CF40
:1016B0000DF0F8CF0EF0F5CF0FF0ABA206D0AB983F
:1016C000AB88AECF10F0AECF10F09EAA42D09E9A5B
:1016D000AECF11F01150D8B43CD01150080AD8A4A4
:1016E00018D05650D8A456065650010D0101720E5E
:1016F000F324D96E0101010EF420DA6E000EDF6EC4
:101700009EA8FED7200EAD6E9EA8FED7080EAD6E29
:1017100013D0080E565CD8B00FD05650010D010101
:10172000720EF324D96E0101010EF420DA6E11500D
:10173000FFEC0FF0DF6E562A11500D0AD8B404D01A
:101740001150200AD8A405D0010E0001A36F000E8D
:10175000566E9EA210D09E92544A552A050E545C95
:10176000000E5558D8A007D0000E556E000E546ECE
:10177000010E0001A26F0FC0F5FF0EC0F8FF0DC0F3
:10178000F7FF0CC0F6FF0BC0F4FF0AC0F3FF09C05F
:10179000DAFF08C0D9FF07C0E2FF06C0E1FF05C0BD
:1017A000EAFF04C0E9FF03C0FBFF02C0FAFF11001B
:1017B000000E316E27D018C012F019C013F0000EC1
:1017C000156E0E0E146EC1EC0FF0560E1A6E010E51
:1017D0001B6E12501A2613501B223150020DF3506B
:1017E0001A24D96EF4501B20DA6E3150020D1C0EF3
:1017F000F324E16E000EF420E26EDECFE6FFDDCFD3
:10180000E5FF312A060E3164D6D7000E316E42D084
:101810003150020D1C0EF324D96E000EF420DA6E46
:10182000DECF2CF0DDCF2DF03128306E2FD03050B0
:10183000020D1C0EF324D96E000EF420DA6EDECFFA
:101840002EF0DDCF2FF02F50800A1A6E2C502E5C18
:101850002D50800A1A58D8B018D03150020D1C0EE5
:10186000F324D96E000EF420DA6E2EC0DEFF2FC0F6
:10187000DDFF3050020D1C0EF324D96E000EF42053
:10188000DA6E2CC0DEFF2DC0DDFF302A060E30647C
:10189000CED7312A060E3164BBD722C02AF023C02E
:1018A0002BF02AC018F02BC019F01200000E1B6E8E
:1018B0001950800A800F08E1000E185C05E1000E47
:1018C000175C02E1000E165CD8B00AD0191E181E73
:1018D000171E166C000E172218221922010E1B6EFD
:1018E0001550800A800F08E1000E145C05E1000E1F
:1018F000135C02E1000E125CD8B00AD0151E141E53
:10190000131E126C000E132214221522010E1B1A34
:10191000000E1C6E000E1D6E000E1E6E000E1F6E61
:101920001950161017101810D8B42AD0010E1A6EBC
:1019300006D0D89016361736183619361A2A19AE28
:10194000F8D7D8901C361D361E361F361650125C3E
:10195000175013581850145819501558D8A009D0BA
:101960001650125E1750135A1850145A1950155A1F
:101970001C80D89019321832173216321A2EE1D73D
:101980001B50D8B408D01F1E1E1E1D1E1C6C000E3E
:101990001D221E221F221CC012F01DC013F01EC0EB
:1019A00014F01FC015F01200000E1D6E000E1C6E0C
:1019B000020E1C5C000E1D58D8B02FD0000E1B6EFE
:1019C000000E1A6E030E1A5C000E1B58D8B022D0FF
:1019D0001CC012F01DC013F0000E156E060E146E22
:1019E000C1EC0FF0480E186E000E196E125018263A
:1019F00013501922D8901A34D96E1B34DA6E18504D
:101A0000D9261950DA22000EDE6E000EDD6E1A4A5B
:101A10001B2AD8D71C4A1D2ACBD7000E1D6E000EDC
:101A20001C6E020E1C5C000E1D58D8B02FD0000E8C
:101A30001B6E000E1A6E070E1A5C000E1B58D8B0F3
:101A400022D01CC012F01DC013F0000E156E0E0E39
:101A5000146EC1EC0FF0560E186E010E196E125076
:101A6000182613501922D8901A34D96E1B34DA6E06
:101A70001850D9261950DA22000EDE6E000EDD6EE7
:101A80001A4A1B2AD8D71C4A1D2ACBD7120002D0CB
:101A9000184A192A18C0D9FF19C0DAFFDF50200AE6
:101AA000D8B4F6D718C0D9FF19C0DAFFDF50090A39
:101AB000D8B4EED7000E1E6E000E1D6E000E1C6E0A
:101AC0002D0E18C0D9FF19C0DAFFDF6202D01C2A20
:101AD00023D02B0E18C0D9FF19C0DAFFDF621ED049
:101AE0001BD01DC012F01EC013F0000E156E0A0EA2
:101AF000146EC1EC0FF018C0D9FF19C0DAFFDF5027
:101B00001A6E1B6A12501A2613501B22D00E1A246A
:101B10001D6EFF0E1B201E6E184A192A18C0D9FF11
:101B200019C0DAFFDF50E4EC0FF0D8B0DAD71C5060
:101B3000D8B40DD01DC01AF01EC01BF01A1E1B1EFB
:101B40001A4A1B2A1AC018F01BC019F004D01DC075
:101B500018F01EC019F012001D6E54D01C50800ADF
:101B6000F36E800EF35C000ED8B41B5CD8B00CD0C2
:101B70001BC012F01CC013F07CEC0FF012C01BF065
:101B800013C01CF0828801D082981C50800A7D0FFF
:101B9000E90ED8B41B5CD8A004D0030E1C6EE80E6E
:101BA0001B6E1BC012F01CC013F008EC0FF031D0FC
:101BB0001C50800AF36E800EF35C000ED8B41B5CE0
:101BC000D8B00CD01BC012F01CC013F07CEC0FF08E
:101BD00012C01BF013C01CF0828A01D0829A1C50E4
:101BE000800A7D0FE90ED8B41B5CD8A004D0030E88
:101BF0001C6EE80E1B6E1BC012F01CC013F0DEEC56
:101C00000EF007D01D50000AD8B4A8D7010AD8B4E6
:101C1000CFD712000A0EC16EBF0EC06E000EC26E8C
:101C20009268FE0E936EF19E810E946E000ECA6E47
:101C3000CA86CA88CA8ACA8CCA90CA92E90ECB6E72
:101C4000CA84800EBE6E0C0EBD6E800EBB6E0C0E76
:101C5000BA6EBD98BD9ABA98BA9AAC84130EAF6E9C
:101C6000AC98AB8EAB88AB9A9D989D8AAC9CAB9C94
:101C7000AC8A000EF26E000E9D6E9D969D989D8A18
:101C8000F28C9D909E929D829D9CF28E1200590E28
:101C90003224D96E000E3320DA6EDF500AEC10F0D9
:101CA000AEEC0FF012C037F013C038F032C012F0B3
:101CB00033C013F0000E156E0E0E146EC1EC0FF053
:101CC000560E356E010E366E1250352613503622E2
:101CD0003450020DF3503524D96EF4503620DA6EAC
:101CE00037C0DEFF38C0DDFF32C018F033C019F056
:101CF000D8EC0BF018C039F019C03AF039C032F006
:101D00003AC033F0120001EE56F0360EEE6AE806E5
:101D1000FDE100EE80F0250EEE6AE806FDE100EE42
:101D200048F00F0EEE6AE806FDE1380EF66E200E62
:101D3000F76E000EF86E0900F5CFC9F0340EF66E9E
:101D4000200EF76E000EF86E00EE57F010EE04F065
:101D50000900F5CFEEFFE550E150FAE1000EF86E14
:101D6000000115EF07F0000E206E000E216E000E30
:101D7000226E000E236E18A008D01C5020261D5085
:101D800021221E5022221F502322D8901C361D369D
:101D90001E361F36D8901B321A32193218321B5099
:101DA000181019101A10D8A4E6D720C018F021C0B6
:101DB00019F022C01AF023C01BF01200000E186E9A
:101DC00012C019F013C01AF019C014F01AC015F09F
:101DD000D89015321432D890153214321450BE6E89
:101DE00019C014F01AC015F0143A153AF00E151671
:101DF00014500F0B1512F00E1416300E1414166E2C
:101E0000176ABD50CF0B186E18501610BD6E120019
:101E1000000E186E12C019F013C01AF019C014F099
:101E20001AC015F0D89015321432D89015321432E9
:101E30001450BB6E19C014F01AC015F0143A153ABC
:101E4000F00E151614500F0B1512F00E1416300E5E
:101E50001414166E176ABA50CF0B186E185016105D
:101E6000BA6E1200000E186E000E176E1550141088
:101E7000D8B41CD0010E166E04D0D8901436153686
:101E8000162A15AEFAD7D890173618361450125CA9
:101E900015501358D8A005D01450125E1550135A7F
:101EA0001780D89015321432162EEDD717C012F0C5
:101EB00018C013F012001C501B10D8B418D0010E1B
:101EC0001D6E04D0D8901B361C361D2A1CAEFAD7C6
:101ED0001B50195C1C501A58D8A004D01B50195E16
:101EE0001C501A5AD8901C321B321D2EF1D719C023
:101EF00019F01AC01AF012001350800AF36E800E07
:101F0000F35C000ED8B4125CD8B00DD012C014F03F
:101F100013C015F0141E151E144A152A14C012F011
:101F200015C013F004D012C012F013C013F0120049
:101F3000176E010E166E7B0E175CD8B004D0610EC2
:101F4000175CD8B007D01750D4EC0FF0D8B002D03F
:101F5000000E166E16C015F0153012009EACFED79E
:101F6000C3CF16F0176AC450156E146A16501410B9
:101F7000166E17501510176E16C012F017C013F01A
:101F8000120012501402F3CF16F0F4CF17F01250D3
:101F90001502F350172613501402F350172616C0DB
:101FA00012F017C013F01200146E000E136E5B0EC9
:101FB000145CD8B005D0400E146402D0010E136E2C
:101FC00013C012F012301200146E000E136E3A0E8F
:101FD000145CD8B005D02F0E146402D0010E136E1D
:101FE00013C012F012301200126E7B0E125CD8B0C9
:101FF00004D0600E126401D0129A12501200016EC9
:102000007B0E015CD8B004D0600E016401D0019A4F
:1020100001501200126E1244E846FC0B0309C26E16
:10202000C280C2829E9C1200126E9EA8FED712C071
:0A203000ADFF1200190000010100CD
:020000040020DA
:08000000FFFFFFFFFFFFFFFF00
:020000040030CA
:0E000000FF02181EFF8180FF0FC00FE00F40AF
:00000001FF
